:1000000071C0000086C0000084C0000082C00000F3
:1000100080C000007EC000007CC000007AC00000EC
:1000200078C0000076C0000074C0000072C00000FC
:1000300070C000006EC000006CC000006AC000000C
:1000400068C0000066C0000064C0000062C000001C
:1000500060C000005EC000005CC000005AC000002C
:1000600058C0000056C0000054C0000052C000003C
:1000700050C000004EC000004CC000004AC000004C
:1000800048C0000046C0000044C0000042C000005C
:1000900040C000003EC000003CC000003AC000006C
:1000A00038C0000036C0000034C0000032C000007C
:1000B00030C000002EC000002CC000002AC000008C
:1000C00028C0000026C0000024C0000022C000009C
:1000D00020C000001EC000001CC000001AC00000AC
:1000E00018C0000011241FBECFEFD1E2DEBFCDBF8C
:1000F00000E00CBF12E0A0E0B2E0ECEDF9E000E0BF
:100100000BBF02C007900D92AC30B107D9F721D1D7
:1001100063C476CFCF93DF93CDB7DEB78CE790E0A3
:1001200020E4FC0120838AE790E020E8FC012083A2
:100130000000DF91CF910895CF93DF93CDB7DEB765
:1001400084EC90E027E630E0FC013183208381ECF1
:1001500090E028E1FC01208382EC90E026E0FC01A5
:1001600020830000DF91CF910895CF93DF9300D0DB
:100170001F92CDB7DEB79C838B831A821982898147
:100180009A812B813C81820F931FFC0180818823FF
:1001900009F180EC90E0FC018081882F90E0807272
:1001A000992721E0892B09F020E0222309F0F1CFE3
:1001B00086EC90E029813A814B815C81240F351FC8
:1001C000F9012081FC01208389819A8101969A831B
:1001D0008983D5CF00000F900F900F900F90DF9183
:1001E000CF910895CF93DF9300D01F92CDB7DEB7A4
:1001F00069837A838B839C8320E030E040EA50E47B
:1002000069817A818B819C8140D3DC01CB0120E024
:1002100030EC4FE754E4BC01CD01E8D1DC01CB0167
:10022000BC01CD014BD2DC01CB010F900F900F90A0
:100230000F90DF91CF910895CF93DF931F921F927C
:10024000CDB7DEB78AE790E02AE730E0F9012081F8
:100250002064FC0120838AE790E0FC018081882FE4
:1002600090E08071992721E0892B09F020E022237A
:1002700009F0F1CF88E790E0FC01808191819A83B9
:1002800089838AE790E02AE730E0F90120812F7B1B
:10029000FC01208389819A810F900F90DF91CF918B
:1002A0000895CF93DF93CDB7DEB728970FB6F894B4
:1002B000DEBF0FBECDBF98878F8319821A821B8243
:1002C0001C821E821D822D813E818F819885281778
:1002D0003907ECF4B1DF092E000CAA0BBB0BBC01F3
:1002E000CD011FD2DC01CB019C01AD0169817A8176
:1002F0008B819C8113D1DC01CB0189839A83AB83F1
:10030000BC838D819E8101969E838D83DCCF8F81FE
:100310009885092E000CAA0BBB0BBC01CD0101D2A4
:10032000DC01CB019C01AD0169817A818B819C81CB
:100330005DD1DC01CB01BC01CD01C0D1DC01CB0121
:1003400028960FB6F894DEBF0FBECDBFDF91CF91D8
:100350000895CF93DF93CDB7DEB7CA5DD1090FB64D
:10036000F894DEBF0FBECDBFE7DED4DE80E090E0C4
:10037000AAE7B4E48D839E83AF83B88720E030E0A2
:100380004AE755E46D817E818F8198857ED2DC01BC
:10039000CB0189879A87AB87BC8720E030E040E8B3
:1003A0005FE369857A858B859C851CD188232CF435
:1003B00081E090E09E878D873AC020E03FEF4FE7D5
:1003C00057E469857A858B859C855BD2181634F550
:1003D00020E030E040E251E46D817E818F8198859C
:1003E00054D2DC01CB01BC01CD016DD1DC01CB01CC
:1003F0009E878D878D859E85892B19F180E991E0F7
:10040000988B8F878F8598890197F1F7988B8F87C5
:100410008D859E8501979E878D87ECCF69857A852E
:100420008B859C8550D1DC01CB019E878D878D8586
:100430009E859A8B898B89899A890197F1F79A8B86
:10044000898BCE0189589F4F44E650E060E070E010
:100450007FD2CE01439644E650E060E070E078D26F
:1004600084E690E01EDF9A83898389819A81092E30
:10047000000CAA0BBB0BBC01CD0153D1DC01CB019D
:10048000BC01CD01AFDE9C838B839E0129583F4F79
:1004900089819A814AE050E0B90161D29E012D5EC6
:1004A0003F4F8B819C814AE050E0B90158D2CE0188
:1004B00089589F4F9C01F90101900020E9F7CF0175
:1004C0000197821B930B9E0129583F4F820F931F68
:1004D0002AE030E0FC0131832083CE0143969C0169
:1004E000F90101900020E9F7CF010197821B930BDE
:1004F0009E012D5E3F4F820F931F2AE030E0FC01EA
:1005000031832083CE0189589F4F2FDECE01439641
:100510002CDE80E092E029DE29CF5058BB27AA27A5
:100520000ED075C166D130F06BD120F031F49F3F11
:1005300011F41EF45BC10EF4E095E7FB51C1E92F05
:1005400077D180F3BA17620773078407950718F00D
:1005500071F49EF58FC10EF4E0950B2EBA2FA02DED
:100560000B01B90190010C01CA01A0011124FF2760
:10057000591B99F0593F50F4503E68F11A16F0405B
:10058000A22F232F342F4427585FF3CF469537955A
:100590002795A795F0405395C9F77EF41F16BA0B1F
:1005A000620B730B840BBAF09150A1F0FF0FBB1FCD
:1005B000661F771F881FC2F70EC0BA0F621F731F16
:1005C000841F48F4879577956795B795F7959E3F73
:1005D00008F0B3CF9395880F08F09927EE0F979501
:1005E00087950895D9D008F481E008950CD00FC103
:1005F00007D140F0FED030F021F45F3F19F0F0C099
:10060000511139C1F3C014D198F39923C9F355237B
:10061000B1F3951B550BBB27AA27621773078407F5
:1006200038F09F5F5F4F220F331F441FAA1FA9F3AB
:1006300033D00E2E3AF0E0E830D091505040E6959D
:10064000001CCAF729D0FE2F27D0660F771F881FFE
:10065000BB1F261737074807AB07B0E809F0BB0BED
:10066000802DBF01FF2793585F4F2AF09E3F510511
:1006700068F0B6C000C15F3FECF3983EDCF38695AE
:1006800077956795B795F7959F5FC9F7880F911D87
:100690009695879597F90895E1E0660F771F881F73
:1006A000BB1F621773078407BA0720F0621B730B26
:1006B000840BBA0BEE1F88F7E095089504D0689478
:1006C000B111D9C00895BCD088F09F5790F0B92FD0
:1006D0009927B751A0F0D1F0660F771F881F991F97
:1006E0001AF0BA95C9F712C0B13081F0C3D0B1E0A9
:1006F0000895C0C0672F782F8827B85F39F0B93FB9
:10070000CCF3869577956795B395D9F73EF4909598
:100710008095709561957F4F8F4F9F4F0895E89416
:1007200009C097FB3EF490958095709561957F4F39
:100730008F4F9F4F9923A9F0F92F96E9BB279395E7
:10074000F695879577956795B795F111F8CFFAF4F7
:10075000BB0F11F460FF1BC06F5F7F4F8F4F9F4F28
:1007600016C0882311F096E911C0772321F09EE886
:10077000872F762F05C0662371F096E8862F70E0EC
:1007800060E02AF09A95660F771F881FDAF7880FC6
:100790009695879597F90895990F0008550FAA0B1C
:1007A000E0E8FEEF16161706E807F907C0F0121684
:1007B0001306E407F50798F0621B730B840B950B87
:1007C00039F40A2661F0232B242B252B21F40895DC
:1007D0000A2609F4A140A6958FEF811D811D089579
:1007E00097F99F6780E870E060E008959FEF80ECE4
:1007F000089500240A941616170618060906089587
:1008000000240A9412161306140605060895092EEC
:100810000394000C11F4882352F0BB0F40F4BF2B5B
:1008200011F460FF04C06F5F7F4F8F4F9F4F08959B
:1008300057FD9058440F551F59F05F3F71F0479591
:10084000880F97FB991F61F09F3F79F08795089576
:10085000121613061406551FF2CF4695F1DF08C095
:10086000161617061806991FF1CF869571056105B2
:1008700008940895E894BB2766277727CB0197F95A
:1008800008958ADF08F48FEF08950BD0C0CFB1DF51
:1008900028F0B6DF18F0952309F0A2CFA7CF1124D6
:1008A000EACFC6DFA0F3959FD1F3950F50E0551F17
:1008B000629FF001729FBB27F00DB11D639FAA27B5
:1008C000F00DB11DAA1F649F6627B00DA11D661F04
:1008D000829F2227B00DA11D621F739FB00DA11D25
:1008E000621F839FA00D611D221F749F3327A00DDF
:1008F000611D231F849F600D211D822F762F6A2F7B
:1009000011249F5750408AF0E1F088234AF0EE0FFF
:10091000FF1FBB1F661F771F881F91505040A9F70C
:100920009E3F510570F05CCFA6CF5F3FECF3983E41
:10093000DCF3869577956795B795F795E7959F5F73
:10094000C1F7FE2B880F911D9695879597F908950D
:10095000DC0101C06D9341505040E0F708954532ED
:10096000510518F4423008F004C0FB011082CB019D
:100970000895BB274A3031F4992322F4BDE29095C3
:1009800081959F4F01C0BB27FB015527AA27880FE0
:10099000991FAA1FA41710F0A41B83955051B9F7F3
:1009A000A05DAA3308F0A95DA193009779F7B11172
:1009B000B1931192CB0100C0DC01FC01672F719152
:1009C0007723E1F7329704C07C916D937083629135
:0C09D000AE17BF07C8F30895F894FFCFDE
:0C09DC003D3D3D3D3D3D3D3D3D3D0A00A3
:00000001FF
