:1000000073C00000A8C00000DCC0000010C10000E8
:1000100044C1000078C10000ACC10000E0C1000094
:1000200014C2000082C0000080C000007EC000003A
:100030007CC000007AC0000078C0000076C00000DC
:1000400074C0000072C0000070C000006EC00000EC
:100050006CC000006AC0000068C0000066C00000FC
:1000600064C00000B2C30000E2C300005EC0000034
:100070005CC000005AC0000058C0000056C000001C
:1000800054C0000052C0000050C000004EC000002C
:100090004CC000004AC0000048C0000046C000003C
:1000A00044C0000042C0000040C000003EC000004C
:1000B0003CC000003AC0000038C0000036C000005C
:1000C00034C0000032C0000030C000002EC000006C
:1000D0002CC000002AC0000028C0000026C000007C
:1000E00024C00000CA05D60511241FBECFEFD1E2FF
:1000F000DEBFCDBF00E00CBF22E0A0E0B2E001C057
:100100001D92A731B207E1F710E0C3E7D0E000E0AD
:1001100005C021970109802FFE0192D5C237D10772
:1001200080E00807B1F7A5D493C56ACFCF93DF93DA
:100130001F921F92CDB7DEB79A83898389819A81F6
:10014000FC0181819281FC01199500000F900F90B4
:10015000DF91CF9108951F920F9200905F000F9250
:10016000112400905B000F922F933F934F935F9366
:100170006F937F938F939F93AF93BF93EF93FF936F
:10018000CF93DF93CDB7DEB780910002909101024B
:10019000CDDF0000DF91CF91FF91EF91BF91AF9143
:1001A0009F918F917F916F915F914F913F912F918F
:1001B0000F9000925B000F9000925F000F901F90D5
:1001C00018951F920F9200905F000F9211240090DB
:1001D0005B000F922F933F934F935F936F937F93A7
:1001E0008F939F93AF93BF93EF93FF93CF93DF933F
:1001F000CDB7DEB7809102029091030297DF000035
:10020000DF91CF91FF91EF91BF91AF919F918F912E
:100210007F916F915F914F913F912F910F9000923D
:100220005B000F9000925F000F901F9018951F9237
:100230000F9200905F000F92112400905B000F92CC
:100240002F933F934F935F936F937F938F939F93DE
:10025000AF93BF93EF93FF93CF93DF93CDB7DEB709
:10026000809104029091050261DF0000DF91CF913F
:10027000FF91EF91BF91AF919F918F917F916F917E
:100280005F914F913F912F910F9000925B000F90E3
:1002900000925F000F901F9018951F920F92009090
:1002A0005F000F92112400905B000F922F933F93F9
:1002B0004F935F936F937F938F939F93AF93BF936E
:1002C000EF93FF93CF93DF93CDB7DEB78091060214
:1002D000909107022BDF0000DF91CF91FF91EF910A
:1002E000BF91AF919F918F917F916F915F914F914E
:1002F0003F912F910F9000925B000F9000925F0052
:100300000F901F9018951F920F9200905F000F9210
:10031000112400905B000F922F933F934F935F93B4
:100320006F937F938F939F93AF93BF93EF93FF93BD
:10033000CF93DF93CDB7DEB7809108029091090289
:10034000F5DE0000DF91CF91FF91EF91BF91AF916A
:100350009F918F917F916F915F914F913F912F91DD
:100360000F9000925B000F9000925F000F901F9023
:1003700018951F920F9200905F000F921124009029
:100380005B000F922F933F934F935F936F937F93F5
:100390008F939F93AF93BF93EF93FF93CF93DF938D
:1003A000CDB7DEB780910A0290910B02BFDE00004C
:1003B000DF91CF91FF91EF91BF91AF919F918F917D
:1003C0007F916F915F914F913F912F910F9000928C
:1003D0005B000F9000925F000F901F9018951F9286
:1003E0000F9200905F000F92112400905B000F921B
:1003F0002F933F934F935F936F937F938F939F932D
:10040000AF93BF93EF93FF93CF93DF93CDB7DEB757
:1004100080910C0290910D0289DE0000DF91CF9156
:10042000FF91EF91BF91AF919F918F917F916F91CC
:100430005F914F913F912F910F9000925B000F9031
:1004400000925F000F901F9018951F920F920090DE
:100450005F000F92112400905B000F922F933F9347
:100460004F935F936F937F938F939F93AF93BF93BC
:10047000EF93FF93CF93DF93CDB7DEB780910E025A
:1004800090910F0253DE0000DF91CF91FF91EF9129
:10049000BF91AF919F918F917F916F915F914F919C
:1004A0003F912F910F9000925B000F9000925F00A0
:1004B0000F901F901895CF93DF93CDB7DEB7279796
:1004C0000FB6F894DEBF0FBECDBF9B838A836C83CB
:1004D0004D833F832E838A819B81E7D08C818370FB
:1004E000880F89838A819B81BAD08C81882F90E084
:1004F00080719927892B31F08A819B8121E0FC0151
:10050000238304C08A819B81FC0113828A819B81A1
:10051000FC018381882F90E087599F4F9C018A813D
:100520009B81FC018381882F90E087599F4FFC01BC
:100530008081682F8C81882F90E08B7FAC01440FE5
:10054000551F83E090E002C0880F991F4A95E2F79B
:1005500080958623F90180838A819B81FC018381B8
:10056000882F90E087599F4FAC018A819B81FC01C5
:100570008381882F90E087599F4FFC018081682FED
:100580008D81882F90E02C81222F30E02B7F220F4D
:10059000331F02C0880F991F2A95E2F7862BFA01B4
:1005A00080838CE390E02CE330E0F9012081622F1E
:1005B0002C81422F50E021E030E002C0220F331F97
:1005C0004A95E2F7262BFC0120838A819B812E81AC
:1005D0003F81FC01328321838A819B812C81FC0134
:1005E00020838A819B81FC018081882F90E0880F85
:1005F000991F80509E4F2A813B81FC0131832083CB
:10060000000027960FB6F894DEBF0FBECDBFDF9176
:10061000CF910895CF93DF931F921F92CDB7DEB78E
:100620009A8389838DE390E02DE330E0F901208106
:10063000622F29813A81F9012081422F50E021E087
:1006400030E002C0220F331F4A95E2F7262BFC014F
:10065000208300000F900F90DF91CF910895CF93EA
:10066000DF931F921F92CDB7DEB79A8389838DE304
:1006700090E02DE330E0F9012081622F29813A8159
:10068000F9012081422F50E021E030E002C0220F2A
:10069000331F4A95E2F720952623FC0120830000B2
:1006A0000F900F90DF91CF910895CF93DF931F921A
:1006B0001F92CDB7DEB79A83898389819A819093FF
:1006C00011028093100200000F900F90DF91CF91E4
:1006D0000895EF920F93CF93DF93CDB7DEB72A97AC
:1006E0000FB6F894DEBF0FBECDBF9C838B837E8395
:1006F0006D834F8328870987EA868B819C8128D167
:100700008D819E819C01990F440B550B80E492E4EE
:10071000AFE0B0E0BC01CD0155D2DA01C9010197CB
:100720009A8389833BD1FC01108284EC90E029817B
:100730003A81FC013183208380EC90E020EC30E0B2
:10074000F90130812F81232BFC01208381EC90E083
:1007500021EC30E0F9012081286BFC01208382EC40
:1007600090E038852985322B2A85232BFC012083B4
:1007700000002A960FB6F894DEBF0FBECDBFDF9102
:10078000CF910F91EF900895CF93DF931F921F9217
:10079000CDB7DEB79A83898389819A81EDD0000035
:1007A0000F900F90DF91CF910895CF93DF931F9219
:1007B0001F92CDB7DEB79A838983F0D0FC01808188
:1007C0000F900F90DF91CF9108951F920F9200909C
:1007D0005F000F92112400905B000F922F933F93C4
:1007E0004F935F936F937F938F939F93AF93BF9339
:1007F000EF93FF93CF93DF93CDB7DEB766D00000C2
:10080000DF91CF91FF91EF91BF91AF919F918F9128
:100810007F916F915F914F913F912F910F90009237
:100820005B000F9000925F000F901F9018951F9231
:100830000F9200905F000F92112400905B000F92C6
:100840002F933F934F935F936F937F938F939F93D8
:10085000AF93BF93EF93FF93CF93DF93CDB7DEB703
:1008600018D00000DF91CF91FF91EF91BF91AF9130
:100870009F918F917F916F915F914F913F912F91B8
:100880000F9000925B000F9000925F000F901F90FE
:1008900018950F931F93CF93DF93CDB7DEB706EC78
:1008A00010E07CD0FC018281F801808381EC90E033
:1008B00021EC30E0F90120812F7DFC012083000034
:1008C000DF91CF911F910F910895CF93DF93CDB713
:1008D000DEB764D09C0186EC90E0FC018081F901D8
:1008E00081835CD021E0FC0120830000DF91CF9167
:1008F0000895CF93DF9300D0CDB7DEB79A83898375
:100900006B834CD02B81FC01228381EC90E021ECA5
:1009100030E0F90120812062FC01208300000F906B
:100920000F900F90DF91CF910895CF93DF931F9297
:100930001F92CDB7DEB79A83898330D0FC01108235
:100940002DD0FC0181810F900F90DF91CF91089500
:10095000CF93DF931F921F92CDB7DEB79A8389831F
:1009600089819A81909313028093120200000F9064
:100970000F90DF91CF910895CF93DF931F921F9235
:10098000CDB7DEB79A8389831092130210921202B8
:1009900000000F900F90DF91CF910895CF93DF93D8
:1009A000CDB7DEB78091120290911302DF91CF9103
:1009B0000895CF93DF93CDB7DEB760E384E192E093
:1009C00098DF0000DF91CF910895CF93DF93CDB7EB
:1009D000DEB761E384E192E08CDF0000DF91CF912C
:1009E0000895CF93DF93CDB7DEB762E384E192E061
:1009F00080DF0000DF91CF910895CF93DF93CDB7D3
:100A0000DEB763E384E192E074DF0000DF91CF9111
:100A10000895CF93DF93CDB7DEB764E384E192E02E
:100A200068DF0000DF91CF910895CF93DF93CDB7BA
:100A3000DEB765E384E192E05CDF0000DF91CF91F7
:100A40000895CF93DF93CDB7DEB766E384E192E0FC
:100A500050DF0000DF91CF910895CF93DF93CDB7A2
:100A6000DEB767E384E192E044DF0000DF91CF91DD
:100A70000895CF93DF93CDB7DEB7A0970FB6F89464
:100A8000DEBF0FBECDBFF89429ED34E042E060E058
:100A9000CE01019610DDCE01059625EE34E042E050
:100AA00061E009DDCE01099621EF34E042E062E029
:100AB00002DDCE010D962DEF34E042E063E0FBDC79
:100AC000CE01419629E035E042E064E0F4DCCE015D
:100AD000459625E135E042E065E0EDDCCE01499642
:100AE00021E235E042E066E0E6DCCE014D962DE203
:100AF00035E042E067E0DFDCCE0101968BDDCE0120
:100B0000059688DD789484E192E04FDE8823D9F35E
:100B100084E192E00ADF682F84E192E0EADE89E670
:100B200090E0FC018081682F84E192E0E2DEEBCF6F
:100B3000EF920F93CF93DF9300D01F92CDB7DEB724
:100B40009A8389837C836B8389819A81019769F475
:100B50008B819C81019649F4E12C00E026E040E085
:100B600060E875E284E192E0B4DD89819A81892BA5
:100B700039F48B819C81019619F484E192E004DEC2
:100B800000000F900F900F900F90DF91CF910F9179
:100B9000EF900895CF93DF93CDB7DEB76FEF7FEF80
:100BA00081E090E0C5DFDF91CF910895CF93DF938F
:100BB000CDB7DEB76FEF7FEF80E090E0B9DFDF9178
:100BC000CF910895052E97FB16F400940FD057FD92
:100BD00005D014D007FC02D046F408C050954095CB
:100BE000309521953F4F4F4F5F4F089590958095D9
:100BF000709561957F4F8F4F9F4F0895A1E21A2EF8
:100C0000AA1BBB1BFD010DC0AA1FBB1FEE1FFF1FB0
:100C1000A217B307E407F50720F0A21BB30BE40B00
:100C2000F50B661F771F881F991F1A9469F7609547
:100C30007095809590959B01AC01BD01CF01089501
:100C4000EE0FFF1F881F8BBF0790F691E02D1994C0
:100C500010E0C3E7D0E000E005C0802FFE01F0DF28
:100C60002196011DC437D10780E00807B1F7F89439
:020C7000FFCFB4
:00000001FF
