:1000000071C000008EC000008CC000008AC00000DB
:1000100088C00000C3C1000084C0000082C000008E
:1000200080C000007EC000007CC000007AC00000DC
:1000300078C0000076C0000074C0000072C00000EC
:1000400070C000006EC000006CC000006AC00000FC
:1000500068C0000066C0000064C00000DCC0000092
:1000600060C000005EC000005CC000005AC000001C
:1000700058C0000056C0000054C0000052C000002C
:1000800050C000004EC000004CC000004AC000003C
:1000900048C0000046C0000044C0000042C000004C
:1000A00040C000003EC000003CC000003AC000005C
:1000B00038C0000036C0000034C0000032C000006C
:1000C00030C000002EC000002CC000002AC000007C
:1000D00028C0000026C0000024C0000022C000008C
:1000E00020C0000011241FBECFEFD1E2DEBFCDBF84
:1000F00000E00CBF12E0A0E0B2E0EEEDF4E000E0C2
:100100000BBF02C007900D92AE30B107D9F722E0C5
:10011000AEE0B2E001C01D92AA31B207E1F799D179
:10012000DCC16ECFCF93DF93CDB7DEB784EC90E028
:1001300027E630E0FC013183208381EC90E028E168
:10014000FC01208382EC90E026E0FC01208300008B
:10015000DF91CF910895CF93DF9300D01F92CDB759
:10016000DEB79C838B831A82198289819A812B81C5
:100170003C81820F931FFC018081882309F180EC70
:1001800090E0FC018081882F90E08072992721E027
:10019000892B09F020E0222309F0F1CF86EC90E0D2
:1001A00029813A814B815C81240F351FF90120811F
:1001B000FC01208389819A8101969A838983D5CF16
:1001C00000000F900F900F900F90DF91CF91089546
:1001D000CF93DF93CDB7DEB785E490E025E430E040
:1001E000F90120812160FC01208385E490E025E471
:1001F00030E0F90120812260FC0120838EE690E04E
:100200002EE630E0F90120812160FC01208300000E
:10021000DF91CF9108951F920F9200905F000F928F
:1002200011248F939F93AF93BF93CF93DF93CDB759
:10023000DEB72597DEBFCDBF8091110290911202EB
:10024000A0911302B091140289839A83AB83BC837B
:10025000809115028D8389819A81AB81BC81019641
:10026000A11DB11D89839A83AB83BC838D818D5F72
:100270008D838D818D3770F08D818D578D83898130
:100280009A81AB81BC810196A11DB11D89839A839E
:10029000AB83BC838D818093150289819A81AB8168
:1002A000BC818093110290931202A0931302B09329
:1002B00014028091160290911702A0911802B09139
:1002C00019020196A11DB11D809316029093170289
:1002D000A0931802B093190200000F900F900F9096
:1002E0000F900F90DF91CF91BF91AF919F918F9120
:1002F0000F9000925F000F901F901895CF93DF939F
:1003000000D01F92CDB7DEB78091110290911202FA
:10031000A0911302B091140289839A83AB83BC83AA
:1003200089819A81AB81BC81BC01CD010F900F9076
:100330000F900F90DF91CF910895CF93DF93CDB7BA
:10034000DEB7DCDF9B01AC0180910E0290910F02C1
:10035000CC01A0E0B0E0281B390B4A0B5B0B80916D
:10036000000290910102CC01A0E0B0E061E08217B0
:100370009307A407B50708F060E0662351F0BEDFDD
:10038000DC01CB0190930F0280930E0281E090E09C
:1003900002C080E090E0DF91CF9108951F920F920C
:1003A00000905F000F92112400905B000F922F933A
:1003B0003F934F935F936F937F938F939F93AF93ED
:1003C000BF93EF93FF93CF93DF931F92CDB7DEB729
:1003D0008FE590E0FC0180818983AFDF21E0892BEC
:1003E00009F420E02223B9F082E092E0B4DE8CE24E
:1003F00090E0FC018081882F90E08071992721E0B6
:10040000892B09F020E0222321F081E08093100263
:1004100002C0109210028FE590E02981FC01208338
:1004200000000F90DF91CF91FF91EF91BF91AF91BD
:100430009F918F917F916F915F914F913F912F91FC
:100440000F9000925B000F9000925F000F901F9042
:100450001895CF93DF93CDB7DEB7F89463DEB8DE9F
:100460008DE290E02DE230E0F90120812F7EFC0149
:10047000208381E091E021E031E0F90120812062D8
:10048000FC01208389E690E029E630E0F901208133
:100490002170FC0120838DE390E02DE330E0F90131
:1004A00020812061FC0120837894809110028823B0
:1004B00051F082E091E022E031E0F90120812062F8
:1004C000FC012083F2CF82E091E022E031E0F901EB
:0E04D00020812F7DFC012083E8CFF894FFCF20
:0E04DE00C8004368616E6765204C45440A0003
:00000001FF
