:1000000071C0000081C000007FC000007DC0000002
:100010007BC0000079C0000077C0000075C0000000
:1000200073C0000071C000006FC000006DC0000010
:100030006BC0000069C0000067C0000065C0000020
:1000400063C0000061C000005FC000005DC0000030
:100050005BC0000059C0000057C0000055C0000040
:1000600053C00000E5C0000029C100004DC00000E1
:100070004BC0000049C0000047C0000045C0000060
:1000800043C0000041C000003FC000003DC0000070
:100090003BC0000039C0000037C0000035C0000080
:1000A00033C0000031C000002FC000002DC0000090
:1000B0002BC0000029C0000027C0000025C00000A0
:1000C00023C0000021C000001FC000001DC00000B0
:1000D0001BC0000019C0000017C0000015C00000C0
:1000E00013C0000011241FBECFEFD1E2DEBFCDBF91
:1000F00000E00CBF22E0A0E0B2E001C01D92A230FF
:10010000B207E1F748D189C17BCF0F931F93CF93FB
:10011000DF93CDB7DEB727970FB6F894DEBF0FBEDB
:10012000CDBF9A8389837C836B834D832E830F831A
:1001300089819A8111D104EC10E08B819C819C0112
:1001400040E050E080E492E4AFE0B0E0BC01CD01DB
:1001500042D1DA01C9010197F8019183808381ECD2
:1001600090E028E9FC01208382EC90E03E812F8121
:10017000322B2D81232BFC01208389819A81FC0164
:10018000108289819A81FC01118289819A81FC0106
:100190001282000027960FB6F894DEBF0FBECDBFC7
:1001A000DF91CF911F910F910895CF93DF9300D0EE
:1001B000CDB7DEB79A8389836B8389819A812B813E
:1001C000FC01228381EC90E021EC30E0F9012081F8
:1001D0002062FC01208300000F900F900F90DF91B0
:1001E000CF910895CF93DF931F921F92CDB7DEB7C3
:1001F0009A83898389819A81FC01108289819A81FD
:10020000FC0181810F900F90DF91CF910895CF93E2
:10021000DF931F921F92CDB7DEB79A8389838981BE
:100220009A81FC0180810F900F90DF91CF9108950A
:100230001F920F9200905F000F92112400905B00BC
:100240000F922F933F934F935F936F937F938F936F
:100250009F93AF93BF93EF93FF93CF93DF93CDB76C
:10026000DEB718D00000DF91CF91FF91EF91BF91E1
:10027000AF919F918F917F916F915F914F913F913E
:100280002F910F9000925B000F9000925F000F90F3
:100290001F901895CF93DF93CDB7DEB771D09C0137
:1002A00086EC90E0FC018081F901818369D021E036
:1002B000FC0120830000DF91CF9108951F920F92DF
:1002C00000905F000F92112400905B000F922F931B
:1002D0003F934F935F936F937F938F939F93AF93CE
:1002E000BF93EF93FF93CF93DF93CDB7DEB718D0D3
:1002F0000000DF91CF91FF91EF91BF91AF919F915E
:100300008F917F916F915F914F913F912F910F90BE
:1003100000925B000F9000925F000F901F90189565
:100320000F931F93CF93DF93CDB7DEB706EC10E0AA
:1003300027D0FC018281F801808381EC90E021ECE0
:1003400030E0F90120812F7DFC0120830000DF9146
:10035000CF911F910F910895CF93DF931F921F921A
:10036000CDB7DEB79A83898389819A819093010200
:100370008093000200000F900F90DF91CF910895BD
:10038000CF93DF93CDB7DEB7809100029091010249
:10039000DF91CF9108950F93CF93DF9300D01F92F9
:1003A000CDB7DEB7CE01029600E020E046E060E087
:1003B00071EEABDE78948FEF8983CE01029627DF52
:1003C0008823D9F3CE0102960DDF8983CE010296F0
:1003D0006981EBDEF2CFA1E21A2EAA1BBB1BFD0145
:1003E0000DC0AA1FBB1FEE1FFF1FA217B307E40714
:1003F000F50720F0A21BB30BE40BF50B661F771F6C
:10040000881F991F1A9469F760957095809590954B
:0E0410009B01AC01BD01CF010895F894FFCF10
:00000001FF
