:1000000071C000008EC000008CC000008AC00000DB
:1000100088C0000086C0000084C0000082C00000CC
:1000200080C000007EC000007CC000007AC00000DC
:1000300078C0000076C0000074C0000072C00000EC
:1000400070C000006EC000006CC000006AC00000FC
:1000500068C0000066C0000064C000008EC20000DE
:1000600060C000005EC000005CC000005AC000001C
:1000700058C0000056C0000054C0000052C000002C
:1000800050C000004EC000004CC000004AC000003C
:1000900048C0000046C0000044C0000042C000004C
:1000A00040C000003EC000003CC000003AC000005C
:1000B00038C0000036C0000034C0000032C000006C
:1000C00030C000002EC000002CC000002AC000007C
:1000D00028C0000026C0000024C0000022C000008C
:1000E00020C0000011241FBECFEFD1E2DEBFCDBF84
:1000F00000E00CBF12E0A0E0B2E0E0E8FDE000E0CC
:100100000BBF02C007900D92A832B107D9F722E0C9
:10011000A8E2B2E001C01D92AB32B207E1F7F6D31C
:100120002DC66ECFCF93DF931F921F92CDB7DEB750
:100130009A83898300000F900F90DF91CF910895EB
:10014000CF93DF93CDB7DEB728970FB6F894DEBF15
:100150000FBECDBF9A8389834B835C836D837E837F
:1001600038872F8389819A81FC01108289819A8145
:1001700021E0FC01218389819A81FC01148215828E
:100180001682178289819A812F813885FC013383F9
:10019000228329813A818B819C81AD81BE81F901C5
:1001A00080879187A287B387000028960FB6F894BE
:1001B000DEBF0FBECDBFDF91CF910895CF93DF9308
:1001C0001F921F92CDB7DEB79A83898389819A8166
:1001D000FC0184819581A681B7810196A11DB11D85
:1001E00029813A81F90184839583A683B783898124
:1001F0009A81FC01248135814681578189819A81C8
:10020000FC0180859185A285B385281739074A07A7
:100210005B0761F489819A8121E0FC012083898157
:100220009A81FC01148215821682178200000F90B9
:100230000F90DF91CF910895CF93DF931F921F927C
:10024000CDB7DEB79A83898389819A81FC01828147
:100250009381FC01199589819A81FC01108200002B
:100260000F900F90DF91CF910895CF93DF931F925E
:100270001F92CDB7DEB79A83898389819A81FC0169
:1002800080810F900F90DF91CF9108952F923F9230
:100290004F925F926F927F928F929F92AF92BF9296
:1002A000CF92DF92EF92FF920F931F93CF93DF9342
:1002B000CDB7DEB72C970FB6F894DEBF0FBECDBF1B
:1002C00098878F8349875A876B877C878F8198852A
:1002D000D9D28F819885FC011082FC011182FC012A
:1002E0001282FC011382FC011482FC011582FC01C4
:1002F0001682FC0117828F819885FC011186108679
:100300008F819885FC011286FC011386FC011486FE
:10031000FC011586FC011686FC011786FC01108A7B
:10032000FC01118A8F819885429603E010E07C01E0
:100330000F3FFFEF1F0741F0C701F4DE2CE0E20E94
:10034000F11C01501109F4CF8F8198858E5B9F4F6E
:10035000FC01108211821282138284E490E0FC017D
:1003600010821A82198289859A85AB85BC858A306C
:100370009D43A105B10550F485E490E025E0FC0122
:10038000208380E094E09A8389834CC089859A8594
:10039000AB85BC858532944FA105B10550F485E449
:1003A00090E024E0FC01208380E091E09A8389833F
:1003B00039C089859A85AB85BC858139904DA3402C
:1003C000B10550F485E490E023E0FC01208380E453
:1003D00090E09A83898326C089859A85AB85BC8500
:1003E00081389448AE41B10550F485E490E022E0B4
:1003F000FC01208388E090E09A83898313C089857B
:100400009A85AB85BC8581309442A44FB10508F034
:1004100098C085E490E021E0FC01208381E090E039
:100420009A83898389819A819C01990F440B550B8A
:1004300080E094E2A4EFB0E0BC01CD0105D3DA0185
:10044000C90129853A854B855C85BC01CD01FCD26B
:10045000DA01C9018B839C83AD83BE838B819C8130
:10046000AD81BE818F3F9105A105B10511F008F066
:100470006AC08B819C8120E031E0281B390B8F8181
:100480009885FC01318720878B819C81AD81BE815D
:100490001C012D01612C712C430185E490E0FC01CD
:1004A0008081882F90E0877099270197880F991F86
:1004B000880F991F880F991FFC01E050FE4F208183
:1004C0003181428153816481758186819781A22E19
:1004D000B32EC42ED52EE62EF72E082F192F222D3F
:1004E000332D442D552D662D772D882D992DCED267
:1004F000A22EB32EC42ED52EE62EF72E082F192F9E
:100500002A2D3B2D4C2D5D2D6E2D7F2D802F912F73
:10051000EF81F885228733874487558766877787F9
:10052000808B918B86E490E02F813885F9012085BE
:100530003185FC0120838EE690E021E0FC012083E0
:1005400003C0000001C000002C960FB6F894DEBF77
:100550000FBECDBFDF91CF911F910F91FF90EF9014
:10056000DF90CF90BF90AF909F908F907F906F90D3
:100570005F904F903F902F9008951F920F920090A0
:100580005F000F92112400905B000F922F933F9316
:100590004F935F936F937F938F939F93AF93BF938B
:1005A000EF93FF93CF93DF93CDB7DEB718D0000062
:1005B000DF91CF91FF91EF91BF91AF919F918F917B
:1005C0007F916F915F914F913F912F910F9000928A
:1005D0005B000F9000925F000F901F901895AF92F4
:1005E000BF92CF92DF92EF92FF920F931F93CF9320
:1005F000DF9300D01F92CDB7DEB706E410E056D1EE
:10060000FC0180859185F801808350D1FC01A08098
:10061000B180C280D380E480F580068117812A2DC5
:100620003B2D4C2D5D2D6E2D7F2D802F912FA1E028
:100630007ED2A22EB32EC42ED52EE62EF72E082F54
:10064000192FA082B182C282D382E482F58206830E
:10065000178319821A821B821C8228D18E5B9F4FBE
:10066000FC01208131814281538161E089819A813D
:10067000AB81BC8182179307A407B50708F060E03F
:10068000662321F113D18C0111D18E5B9F4FFC01A8
:1006900080819181A281B3819C01C901880F991F3A
:1006A000820F931F880F991F880F991F4296800F02
:1006B000911F84DD89819A81AB81BC810196A11D46
:1006C000B11D89839A83AB83BC83C7CF00000F9091
:1006D0000F900F900F90DF91CF911F910F91FF908E
:1006E000EF90DF90CF90BF90AF900895CF93DF93BE
:1006F000CDB7DEB728970FB6F894DEBF0FBECDBFDB
:100700009A8389834B835C836D837E8338872F83B1
:1007100089819A818E5B9F4FFC0180819181A281AA
:10072000B3810497A105B10510F080E039C089813B
:100730009A818E5B9F4FFC0180819181A281B38160
:100740009C01C901880F991F820F931F880F991F61
:10075000880F991F429629813A81F901E80FF91F04
:100760002F8138858B819C81AD81BE81AC01BD011B
:10077000CF01E6DC89819A818E5B9F4FFC018081ED
:100780009181A281B3810196A11DB11D29813A8178
:100790002E5B3F4FF90180839183A283B38381E075
:1007A00028960FB6F894DEBF0FBECDBFDF91CF9174
:1007B0000895CF93DF9300D000D0CDB7DEB79E83EE
:1007C0008D8319821A821B821C828D819E818E5B91
:1007D0009F4FFC01208131814281538189819A811F
:1007E000AB81BC8182179307A407B50708F040C00E
:1007F0008D819E818E5B9F4FFC0180819181A281C2
:10080000B3819C01C901880F991F820F931F880F24
:10081000991F880F991F42962D813E81820F931F49
:1008200024DD8823C9F08D819E818E5B9F4FFC0162
:1008300080819181A281B3819C01C901880F991F98
:10084000820F931F880F991F880F991F42962D8141
:100850003E81820F931FF0DC89819A81AB81BC813C
:100860000196A11DB11D89839A83AB83BC83ADCF53
:10087000000026960FB6F894DEBF0FBECDBFDF9105
:10088000CF910895CF93DF931F921F92CDB7DEB71C
:100890009A83898389819A8190932902809328027F
:1008A00000000F900F90DF91CF910895CF93DF93C9
:1008B000CDB7DEB78091280290912902DF91CF91C8
:1008C0000895CF93DF93CDB7DEB780912A028823B6
:1008D00051F082E091E022E031E0F90120812F7DAA
:1008E000FC01208309C082E091E022E031E0F901BF
:1008F00020812062FC01208390912A0281E08927D7
:1009000080932A020000DF91CF910895CF93DF9367
:10091000CDB7DEB7C455D1090FB6F894DEBF0FBE10
:10092000CDBF8DE290E02DE230E0F90120812F7DF6
:10093000FC01208381E091E021E031E0F901208198
:100940002062FC012083CE010F9648EE53E060E068
:1009500070E09CDCCE010F9621E634E048EE53E0D7
:1009600060E070E0C3DE7894CE010F9622DF80E075
:1009700090E0A8ECB2E489839A83AB83BC8320E047
:1009800030E04AE755E469817A818B819C816BD1A3
:10099000DC01CB018D839E83AF83B88720E030E0FC
:1009A00040E85FE36D817E818F819885DBD088236D
:1009B0002CF481E090E09A8789873BC020E03FEFEC
:1009C0004FE757E46D817E818F81988548D1181655
:1009D0003CF520E030E040E251E469817A818B818E
:1009E0009C8141D1DC01CB01BC01CD01BFD0DC0138
:1009F000CB019A87898789859A85892B09F4B4CF99
:100A000080E991E09C878B878B859C850197F1F726
:100A10009C878B8789859A8501979A878987EBCFF1
:100A20006D817E818F819885A1D0DC01CB019A8771
:100A3000898789859A859E878D878D859E85019773
:100A4000F1F79E878D8790CFA1E21A2EAA1BBB1BC0
:100A5000FD010DC0AA1FBB1FEE1FFF1FA217B3078A
:100A6000E407F50720F0A21BB30BE40BF50B661FA0
:100A7000771F881F991F1A9469F760957095809564
:100A800090959B01AC01BD01CF010895DF93CF93F9
:100A90001F930F939A9DF02D219FF00D8B9DF00DCC
:100AA0008A9DE02DF10D039FF00D029FE00DF11DD9
:100AB0004E9DE00DF11D5E9DF00D4F9DF00D7F935D
:100AC0006F93BF92AF925F934F93D5013CD08B0150
:100AD000AC01D70138D0EB01E80FF91FD6011FD0C8
:100AE0002F913F91D6012FD0C60FD71FE81FF91FB6
:100AF000AF91BF9114D02F913F9125D0C60FD71F32
:100B0000E81FF91FD6011FD0E60FF71F9801BE019D
:100B1000CF0111240F911F91CF91DF91089513D030
:100B2000460F571FC81FD91F08F431960895002497
:100B3000A7FD00942A0F301D401D501D601D701D23
:100B4000801D901D0895A29FB001B39FC001A39F77
:100B5000700D811D1124911DB29F700D811D1124F6
:100B6000911D08952FD008F481E0089557D088F0A2
:100B70009F5790F0B92F9927B751A0F0D1F0660F89
:100B8000771F881F991F1AF0BA95C9F712C0B130A4
:100B900081F05ED0B1E008955BC0672F782F882781
:100BA000B85F39F0B93FCCF3869577956795B395E3
:100BB000D9F73EF490958095709561957F4F8F4F52
:100BC0009F4F0895990F0008550FAA0BE0E8FEEF1C
:100BD00016161706E807F907C0F012161306E40701
:100BE000F50798F0621B730B840B950B39F40A26FA
:100BF00061F0232B242B252B21F408950A2609F4D8
:100C0000A140A6958FEF811D811D089557FD905835
:100C1000440F551F59F05F3F71F04795880F97FBC0
:100C2000991F61F09F3F79F087950895121613067A
:100C30001406551FF2CF4695F1DF08C016161706A9
:100C40001806991FF1CF86957105610508940895DE
:100C5000E894BB2766277727CB0197F90895B2DF81
:100C600008F48FEF08950BD078C069D028F06ED0CB
:100C700018F0952309F05AC05FC01124EACFC6DFEF
:100C8000A0F3959FD1F3950F50E0551F629FF0019F
:100C9000729FBB27F00DB11D639FAA27F00DB11DF8
:100CA000AA1F649F6627B00DA11D661F829F222781
:100CB000B00DA11D621F739FB00DA11D621F839F08
:100CC000A00D611D221F749F3327A00D611D231FDE
:100CD000849F600D211D822F762F6A2F11249F572C
:100CE00050408AF0E1F088234AF0EE0FFF1FBB1F4F
:100CF000661F771F881F91505040A9F79E3F5105EE
:100D000070F014C0A6CF5F3FECF3983EDCF38695FD
:100D100077956795B795F795E7959F5FC1F7FE2B98
:100D2000880F911D9695879597F9089597F99F6774
:100D300080E870E060E008959FEF80EC0895002463
:100D40000A941616170618060906089500240A9430
:100D500012161306140605060895092E0394000CB6
:100D600011F4882352F0BB0F40F4BF2B11F460FF45
:100D700004C06F5F7F4F8F4F9F4F0895F894FFCF50
:100D80000000000000000000000000000000000063
:100D9000040000000000000010000000000000003F
:080DA00040000000000000000B
:00000001FF
