:1000000081C00000A0C000009EC000009CC0000095
:100010009AC0000098C0000096C0000094C0000084
:1000200092C0000090C000008EC000008CC0000094
:100030008AC0000088C0000086C0000084C00000A4
:1000400082C0000080C000007EC000007CC00000B4
:100050007AC0000078C0000076C0000074C00000C4
:1000600072C0000070C000006EC000006CC00000D4
:100070006AC0000068C0000066C0000064C00000E4
:1000800062C0000060C000005EC000005CC00000F4
:100090005AC0000058C0000056C0000054C0000004
:1000A00052C0000050C000004EC000004CC0000014
:1000B0004AC0000048C0000046C0000044C0000024
:1000C00042C0000040C000003EC000003CC0000034
:1000D0003AC0000038C0000036C0000034C0000044
:1000E00032C00000CD00CD00F200F2001A0135014F
:1000F00050015001500150017801780178017801D8
:100100001504210411241FBECFEFD1E2DEBFCDBF05
:1001100000E00CBF22E0A0E0B2E001C01D92A832D6
:10012000B207E1F710E0C1E8D0E000E005C0219798
:100130000109802FFE0191D3C038D10780E0080764
:10014000B1F7A6D19EC45CCFCF93DF9300D01F92AE
:10015000CDB7DEB79A8389836B834C8389819A817B
:100160002B81FC01268389819A81FC018681882F5D
:1001700090E0092E000CAA0BBB0B40E050E02DE0F4
:1001800030E0841B950B2817390708F4D9C0FC010F
:100190008827EE58FF4F8F4F60C38B81282F30E0A8
:1001A00081E090E002C0880F991F2A95E2F7282F7E
:1001B00089819A81FC01278389819A812CE230E030
:1001C000FC013183208389819A812DE230E0FC019A
:1001D0003383228389819A812EE230E0FC013583CA
:1001E0002483AEC08B81882F90E09C012E5F3F4F0F
:1001F00081E090E002C0880F991F2A95E2F7282F2E
:1002000089819A81FC01278389819A812CE230E0DF
:10021000FC013183208389819A812DE230E0FC0149
:100220003383228389819A812EE230E0FC01358379
:10023000248386C089819A8120E2FC0127838981F9
:100240009A8122E330E0FC013183208389819A8105
:1002500023E330E0FC013383228389819A8124E304
:1002600030E0FC01358324836BC089819A8128E0CA
:10027000FC01278389819A812CE230E0FC013183E3
:10028000208389819A812DE230E0FC01338322832F
:1002900089819A812EE230E0FC013583248350C0AD
:1002A0008B81882F90E09C012350310981E090E000
:1002B00002C0880F991F2A95E2F7282F89819A8119
:1002C000FC01278389819A8120E031E0FC013183A0
:1002D000208389819A8121E031E0FC0133832283EC
:1002E00089819A8122E031E0FC013583248328C092
:1002F0008B81882F90E09C012650310981E090E0AD
:1003000002C0880F991F2A95E2F7282F89819A81C8
:10031000FC01278389819A8123E230E0FC0131834B
:10032000208389819A8124E230E0FC013383228397
:1003300089819A8125E230E0FC0135832483000025
:100340008C818823A1F089819A81FC01828193812B
:1003500029813A81F90122813381F9014081298182
:100360003A81F9012781242BFC01208315C0898162
:100370009A81FC018281938129813A81F90122814C
:100380003381F9012081422F29813A81F9012781A6
:1003900020952423FC01208300000F900F900F90E4
:1003A0000F90DF91CF910895CF93DF931F921F920B
:1003B000CDB7DEB79A83898300000F900F90DF914D
:1003C000CF910895CF93DF9300D0CDB7DEB79A8356
:1003D00089836B838B818823A1F089819A81FC01B9
:1003E0008481958129813A81F90124813581F9013E
:1003F000408129813A81F9012781242BFC01208346
:1004000015C089819A81FC018481958129813A8175
:10041000F90124813581F9012081422F29813A8116
:10042000F901278120952423FC01208300000F90EF
:100430000F900F90DF91CF910895CF93DF931F928C
:100440001F92CDB7DEB79A83898389819A8160E054
:10045000B9DF00000F900F90DF91CF910895CF93F7
:10046000DF931F921F92CDB7DEB79A83898389816C
:100470009A81FC018081918129813A81F90127814A
:10048000FC01208300000F900F90DF91CF91089521
:10049000CF93DF93CDB7DEB7AA970FB6F894DEBF40
:1004A0000FBECDBF81EC90E0FC01108261E080E0E6
:1004B00092E088DF61E088E092E084DF80E292E011
:1004C000BCDF88E192E0B9DF80E192E0B6DF80E056
:1004D00090E0AAE7B4E48D839E83AF83B88720E0E1
:1004E00030E04AE755E46D817E818F8198853ED268
:1004F000DC01CB018F8B988FA98FBA8F20E030E081
:1005000040E85FE36F89788D898D9A8DAED188231D
:100510002CF481E090E09C8F8B8F3AC020E03FEF7D
:100520004FE757E46F89788D898D9A8D1BD2181605
:1005300034F520E030E040E251E46D817E818F812E
:10054000988514D2DC01CB01BC01CD0192D1DC0134
:10055000CB019C8F8B8F8B8D9C8D892B19F180E922
:1005600091E09E8F8D8F8D8D9E8D0197F1F79E8FDF
:100570008D8F8B8D9C8D01979C8F8B8FECCF6F898E
:10058000788D898D9A8D75D1DC01CB019C8F8B8FF5
:100590008B8D9C8D98A38F8F8F8D98A10197F1F7EC
:1005A00098A38F8F80E092E048DF88E092E045DFFB
:1005B00061E080E292E006DF61E088E192E002DF44
:1005C00061E080E192E0FEDE80E090E0AAE7B4E442
:1005D00089879A87AB87BC8720E030E04AE755E4FB
:1005E00069857A858B859C85C1D1DC01CB018D879E
:1005F0009E87AF87B88B20E030E040E85FE36D85F1
:100600007E858F85988931D188232CF481E090E014
:100610009A8B898B3AC020E03FEF4FE757E46D8516
:100620007E858F8598899ED1181634F520E030E0BC
:1006300040E251E469857A858B859C8597D1DC0100
:10064000CB01BC01CD0115D1DC01CB019A8B898B8B
:1006500089899A89892B19F180E991E09C8B8B8B90
:100660008B899C890197F1F79C8B8B8B89899A895F
:1006700001979A8B898BECCF6D857E858F859889C4
:10068000F8D0DC01CB019A8B898B89899A899E8B62
:100690008D8B8D899E890197F1F79E8B8D8B80E0E4
:1006A00092E0DDDE88E092E0DADE80E292E0D7DE02
:1006B00088E192E0D4DE80E192E0D1DE80E090E05B
:1006C000AAE7B4E489839A83AB83BC8320E030E05B
:1006D0004AE755E469817A818B819C8147D1DC01AD
:1006E000CB0189A39AA3ABA3BCA320E030E040E8F0
:1006F0005FE369A17AA18BA19CA1B7D088232CF4D8
:1007000081E090E09EA38DA33BC020E03FEF4FE748
:1007100057E469A17AA18BA19CA124D118163CF5BC
:1007200020E030E040E251E469817A818B819C8154
:100730001DD1DC01CB01BC01CD019BD0DC01CB0183
:100740009EA38DA38DA19EA1892B09F4A8CF80E93A
:1007500091E098A78FA38FA198A50197F1F798A78B
:100760008FA38DA19EA101979EA38DA3EBCF69A11D
:100770007AA18BA19CA17DD0DC01CB019EA38DA38E
:100780008DA19EA19AA789A789A59AA50197F1F79E
:100790009AA789A784CFCF93DF9300D01F92CDB7BC
:1007A000DEB79A8389837C836B8389819A810197E1
:1007B000E9F48B819C810196C9F441E060E080E01E
:1007C00092E0C2DC41E061E088E092E0BDDC41E023
:1007D0006DE080E192E0B8DC41E064E088E192E025
:1007E000B3DC41E066E080E292E0AEDC89819A8190
:1007F000892B99F48B819C81019679F480E292E0B7
:10080000D3DD88E192E0D0DD80E192E0CDDD88E0CB
:1008100092E0CADD80E092E0C7DD00000F900F900B
:100820000F900F90DF91CF910895CF93DF93CDB7C5
:10083000DEB76FEF7FEF81E090E0ADDFDF91CF912A
:100840000895CF93DF93CDB7DEB76FEF7FEF80E0F2
:1008500090E0A1DFDF91CF910895EE0FFF1F881F79
:100860008BBF0790F691E02D19942FD008F481E00A
:10087000089557D088F09F5790F0B92F9927B75116
:10088000A0F0D1F0660F771F881F991F1AF0BA9554
:10089000C9F712C0B13081F05ED0B1E008955BC0FD
:1008A000672F782F8827B85F39F0B93FCCF386954A
:1008B00077956795B395D9F73EF4909580957095A7
:1008C00061957F4F8F4F9F4F0895990F0008550FE7
:1008D000AA0BE0E8FEEF16161706E807F907C0F0C6
:1008E00012161306E407F50798F0621B730B840BCE
:1008F000950B39F40A2661F0232B242B252B21F4A8
:1009000008950A2609F4A140A6958FEF811D811D47
:10091000089557FD9058440F551F59F05F3F71F0EF
:100920004795880F97FB991F61F09F3F79F0879556
:100930000895121613061406551FF2CF4695F1DFDF
:1009400008C0161617061806991FF1CF869571056F
:10095000610508940895E894BB2766277727CB01A3
:1009600097F90895B2DF08F48FEF08950BD078C09F
:1009700069D028F06ED018F0952309F05AC05FC0F6
:100980001124EACFC6DFA0F3959FD1F3950F50E075
:10099000551F629FF001729FBB27F00DB11D639F31
:1009A000AA27F00DB11DAA1F649F6627B00DA11DD7
:1009B000661F829F2227B00DA11D621F739FB00D7D
:1009C000A11D621F839FA00D611D221F749F3327ED
:1009D000A00D611D231F849F600D211D822F762F86
:1009E0006A2F11249F5750408AF0E1F088234AF083
:1009F000EE0FFF1FBB1F661F771F881F91505040CF
:100A0000A9F79E3F510570F014C0A6CF5F3FECF3ED
:100A1000983EDCF3869577956795B795F795E795BA
:100A20009F5FC1F7FE2B880F911D9695879597F9CB
:100A3000089597F99F6780E870E060E008959FEF60
:100A400080EC089500240A94161617061806090665
:100A5000089500240A941216130614060506089534
:100A6000092E0394000C11F4882352F0BB0F40F4BC
:100A7000BF2B11F460FF04C06F5F7F4F8F4F9F4FFC
:100A8000089510E0C1E8D0E000E005C0802FFE012D
:100A9000E4DE2196011DC238D10780E00807B1F7D6
:040AA000F894FFCFF8
:00000001FF
