:1000000073C000009FC000009DC000009BC00000A6
:1000100099C0000097C0000095C0000093C0000088
:1000200091C000008FC000008DC000008BC0000098
:1000300089C0000087C0000085C0000083C00000A8
:1000400081C000007FC000007DC000007BC00000B8
:1000500079C0000077C0000075C0000073C00000C8
:1000600071C000006FC000006DC000006BC00000D8
:1000700069C0000067C0000065C0000063C00000E8
:1000800061C000005FC000005DC000005BC00000F8
:1000900059C0000057C0000055C0000053C0000008
:1000A00051C000004FC000004DC000004BC0000018
:1000B00049C0000047C0000045C0000043C0000028
:1000C00041C000003FC000003DC000003BC0000038
:1000D00039C0000037C0000035C0000033C0000048
:1000E00031C000007703830311241FBECFEFD1E29C
:1000F000DEBFCDBF00E00CBF12E0A0E0B2E0E8E65A
:10010000F9E000E00BBF02C007900D92A432B107E6
:10011000D9F722E0A4E2B2E001C01D92A333B207F6
:10012000E1F710E0C3E7D0E000E005C02197010946
:10013000802FFE01F4D2C237D10780E00807B1F763
:1001400009D101C45DCFCF93DF9300D01F92CDB70B
:10015000DEB79A8389836B834C838B81882F90E0F1
:100160008A5E9D4FFC01208189819A81FC01208358
:100170008B81882F90E0885F9D4FFC018081882FC4
:1001800090E0880F991F80509E4FFC0120813181A3
:1001900089819A81FC013283218321E08C8188232B
:1001A00009F420E089819A81FC01308189819A815A
:1001B000FC0181819281422F632F5CD000000F905F
:1001C0000F900F900F90DF91CF910895CF93DF9311
:1001D0001F921F92CDB7DEB79A83898300000F90DC
:1001E0000F90DF91CF910895CF93DF9300D0CDB7DB
:1001F000DEB79A8389836B8389819A81FC01208190
:1002000089819A81FC01818192814B81622F60D02A
:1002100000000F900F900F90DF91CF910895CF9332
:10022000DF931F921F92CDB7DEB79A8389838981AE
:100230009A8160E0D9DF00000F900F90DF91CF919D
:100240000895CF93DF931F921F92CDB7DEB79A83A5
:10025000898389819A81FC01208189819A81FC01AD
:1002600081819281622F62D000000F900F90DF9108
:10027000CF910895CF93DF9300D01F92CDB7DEB713
:100280009A8389836B834C838C81882361F0898175
:100290009A81FC0191818B81292F282B89819A8158
:1002A000FC0121830DC089819A81FC018181982FF5
:1002B0008B8180958923282F89819A81FC01218354
:1002C00000000F900F900F900F90DF91CF91089545
:1002D000CF93DF9300D01F92CDB7DEB79A83898387
:1002E0006B834C838C81882361F089819A81FC0126
:1002F00092818B81292F282B89819A81FC0122836D
:100300000DC089819A81FC018281982F8B81809513
:100310008923282F89819A81FC01228300000F9074
:100320000F900F900F90DF91CF910895CF93DF93AF
:1003300000D0CDB7DEB79A8389836B8389819A8198
:100340002B81FC01208300000F900F900F90DF9114
:10035000CF910895CF93DF93CDB7DEB7AA970FB6AD
:10036000F894DEBF0FBECDBF81EC90E0FC0110829F
:1003700061E084E292E038DF61E087E292E034DF1E
:1003800080E392E04CDF8DE292E049DF8AE292E086
:1003900046DF80E090E0AAE7B4E48D839E83AF83DC
:1003A000B88720E030E04AE755E46D817E818F8197
:1003B00098853ED2DC01CB018F8B988FA98FBA8FA5
:1003C00020E030E040E85FE36F89788D898D9A8D79
:1003D000AED188232CF481E090E09C8F8B8F3AC0C3
:1003E00020E03FEF4FE757E46F89788D898D9A8D34
:1003F0001BD2181634F520E030E040E251E46D8164
:100400007E818F81988514D2DC01CB01BC01CD01A6
:1004100092D1DC01CB019C8F8B8F8B8D9C8D892B96
:1004200019F180E991E09E8F8D8F8D8D9E8D0197C2
:10043000F1F79E8F8D8F8B8D9C8D01979C8F8B8F6D
:10044000ECCF6F89788D898D9A8D75D1DC01CB01C8
:100450009C8F8B8F8B8D9C8D98A38F8F8F8D98A168
:100460000197F1F798A38F8F84E292E0D8DE87E2BC
:1004700092E0D5DE61E080E392E0B6DE61E08DE2FD
:1004800092E0B2DE61E08AE292E0AEDE80E090E0EF
:10049000AAE7B4E489879A87AB87BC8720E030E07D
:1004A0004AE755E469857A858B859C85C1D1DC0155
:1004B000CB018D879E87AF87B88B20E030E040E886
:1004C0005FE36D857E858F85988931D188232CF4F3
:1004D00081E090E09A8B898B3AC020E03FEF4FE7B4
:1004E00057E46D857E858F8598899ED1181634F5E1
:1004F00020E030E040E251E469857A858B859C8577
:1005000097D1DC01CB01BC01CD0115D1DC01CB01C0
:100510009A8B898B89899A89892B19F180E991E0D5
:100520009C8B8B8B8B899C890197F1F79C8B8B8B98
:1005300089899A8901979A8B898BECCF6D857E8505
:100540008F859889F8D0DC01CB019A8B898B8989BA
:100550009A899E8B8D8B8D899E890197F1F79E8B51
:100560008D8B84E292E06DDE87E292E06ADE80E3CA
:1005700092E067DE8DE292E064DE8AE292E061DE84
:1005800080E090E0AAE7B4E489839A83AB83BC83DC
:1005900020E030E04AE755E469817A818B819C81D3
:1005A00047D1DC01CB0189A39AA3ABA3BCA320E074
:1005B00030E040E85FE369A17AA18BA19CA1B7D0AC
:1005C00088232CF481E090E09EA38DA33BC020E023
:1005D0003FEF4FE757E469A17AA18BA19CA124D1F9
:1005E00018163CF520E030E040E251E469817A8160
:1005F0008B819C811DD1DC01CB01BC01CD019BD045
:10060000DC01CB019EA38DA38DA19EA1892B09F4B2
:10061000A8CF80E991E098A78FA38FA198A5019713
:10062000F1F798A78FA38DA19EA101979EA38DA3FB
:10063000EBCF69A17AA18BA19CA17DD0DC01CB017C
:100640009EA38DA38DA19EA19AA789A789A59AA5EE
:100650000197F1F79AA789A784CFCF93DF9300D0B2
:100660001F92CDB7DEB79A8389837C836B838981A0
:100670009A810197E9F48B819C810196C9F441E04C
:1006800060E084E292E05FDD41E061E087E292E0D9
:100690005ADD41E06DE08AE292E055DD41E064E040
:1006A0008DE292E050DD41E066E080E392E04BDDD8
:1006B00089819A81892B99F48B819C81019679F4A7
:1006C00080E392E083DD8DE292E080DD8AE292E0D9
:1006D0007DDD87E292E07ADD84E292E077DD000062
:1006E0000F900F900F900F90DF91CF910895CF93BF
:1006F000DF93CDB7DEB76FEF7FEF81E090E0ADDF46
:10070000DF91CF910895CF93DF93CDB7DEB76FEF31
:100710007FEF80E090E0A1DFDF91CF910895EE0FB1
:10072000FF1F881F8BBF0790F691E02D19942FD0E3
:1007300008F481E0089557D088F09F5790F0B92FC2
:100740009927B751A0F0D1F0660F771F881F991F26
:100750001AF0BA95C9F712C0B13081F05ED0B1E09D
:1007600008955BC0672F782F8827B85F39F0B93FAD
:10077000CCF3869577956795B395D9F73EF4909528
:100780008095709561957F4F8F4F9F4F0895990F7A
:100790000008550FAA0BE0E8FEEF16161706E8074B
:1007A000F907C0F012161306E407F50798F0621B6C
:1007B000730B840B950B39F40A2661F0232B242B41
:1007C000252B21F408950A2609F4A140A6958FEF60
:1007D000811D811D089557FD9058440F551F59F0F4
:1007E0005F3F71F04795880F97FB991F61F09F3F1E
:1007F00079F087950895121613061406551FF2CF47
:100800004695F1DF08C0161617061806991FF1CF96
:1008100086957105610508940895E894BB276627BD
:100820007727CB0197F90895B2DF08F48FEF089589
:100830000BD078C069D028F06ED018F0952309F05D
:100840005AC05FC01124EACFC6DFA0F3959FD1F351
:10085000950F50E0551F629FF001729FBB27F00D6E
:10086000B11D639FAA27F00DB11DAA1F649F6627C3
:10087000B00DA11D661F829F2227B00DA11D621F12
:10088000739FB00DA11D621F839FA00D611D221FCC
:10089000749F3327A00D611D231F849F600D211DB0
:1008A000822F762F6A2F11249F5750408AF0E1F053
:1008B00088234AF0EE0FFF1FBB1F661F771F881F9C
:1008C00091505040A9F79E3F510570F014C0A6CF3B
:1008D0005F3FECF3983EDCF3869577956795B79587
:1008E000F795E7959F5FC1F7FE2B880F911D9695B1
:1008F000879597F9089597F99F6780E870E060E021
:1009000008959FEF80EC089500240A9416161706A8
:1009100018060906089500240A94121613061406F0
:1009200005060895092E0394000C11F4882352F053
:10093000BB0F40F4BF2B11F460FF04C06F5F7F4F0B
:100940008F4F9F4F089510E0C3E7D0E000E005C04F
:10095000802FFE01E4DE2196011DC437D10780E01F
:080960000807B1F7F894FFCF7E
:1009680023002C00320000010101010102010303F0
:100978000303000000000102102020080810204096
:04098800102040807B
:00000001FF
